{
  "_format": "hh-sol-artifact-1",
  "contractName": "Liquidity",
  "sourceName": "contracts/Liquidity.sol",
  "abi": [
    {
      "inputs": [
        {
          "internalType": "address",
          "name": "_tokenA",
          "type": "address"
        },
        {
          "internalType": "address",
          "name": "_tokenB",
          "type": "address"
        }
      ],
      "stateMutability": "nonpayable",
      "type": "constructor"
    },
    {
      "inputs": [
        {
          "internalType": "uint256",
          "name": "_amountA",
          "type": "uint256"
        },
        {
          "internalType": "uint256",
          "name": "_amountB",
          "type": "uint256"
        }
      ],
      "name": "addLiquidity",
      "outputs": [],
      "stateMutability": "nonpayable",
      "type": "function"
    },
    {
      "inputs": [
        {
          "internalType": "uint256",
          "name": "_amountIn",
          "type": "uint256"
        },
        {
          "internalType": "uint256",
          "name": "_reserveIn",
          "type": "uint256"
        },
        {
          "internalType": "uint256",
          "name": "_reserveOut",
          "type": "uint256"
        }
      ],
      "name": "getSwapAmount",
      "outputs": [
        {
          "internalType": "uint256",
          "name": "",
          "type": "uint256"
        }
      ],
      "stateMutability": "pure",
      "type": "function"
    },
    {
      "inputs": [
        {
          "internalType": "address",
          "name": "",
          "type": "address"
        }
      ],
      "name": "liquidity",
      "outputs": [
        {
          "internalType": "uint256",
          "name": "",
          "type": "uint256"
        }
      ],
      "stateMutability": "view",
      "type": "function"
    },
    {
      "inputs": [
        {
          "internalType": "uint256",
          "name": "_liquidity",
          "type": "uint256"
        }
      ],
      "name": "removeLiquidity",
      "outputs": [],
      "stateMutability": "nonpayable",
      "type": "function"
    },
    {
      "inputs": [],
      "name": "reserveA",
      "outputs": [
        {
          "internalType": "uint256",
          "name": "",
          "type": "uint256"
        }
      ],
      "stateMutability": "view",
      "type": "function"
    },
    {
      "inputs": [],
      "name": "reserveB",
      "outputs": [
        {
          "internalType": "uint256",
          "name": "",
          "type": "uint256"
        }
      ],
      "stateMutability": "view",
      "type": "function"
    },
    {
      "inputs": [
        {
          "internalType": "uint256",
          "name": "_amountA",
          "type": "uint256"
        }
      ],
      "name": "swapTokenAForTokenB",
      "outputs": [],
      "stateMutability": "nonpayable",
      "type": "function"
    },
    {
      "inputs": [
        {
          "internalType": "uint256",
          "name": "_amountB",
          "type": "uint256"
        }
      ],
      "name": "swapTokenBForTokenA",
      "outputs": [],
      "stateMutability": "nonpayable",
      "type": "function"
    },
    {
      "inputs": [],
      "name": "tokenA",
      "outputs": [
        {
          "internalType": "contract IERC20",
          "name": "",
          "type": "address"
        }
      ],
      "stateMutability": "view",
      "type": "function"
    },
    {
      "inputs": [],
      "name": "tokenB",
      "outputs": [
        {
          "internalType": "contract IERC20",
          "name": "",
          "type": "address"
        }
      ],
      "stateMutability": "view",
      "type": "function"
    },
    {
      "inputs": [],
      "name": "totalLiquidity",
      "outputs": [
        {
          "internalType": "uint256",
          "name": "",
          "type": "uint256"
        }
      ],
      "stateMutability": "view",
      "type": "function"
    }
  ],
  "bytecode": "0x608060405234801561001057600080fd5b506040516112b53803806112b58339818101604052810190610032919061011d565b816000806101000a81548173ffffffffffffffffffffffffffffffffffffffff021916908373ffffffffffffffffffffffffffffffffffffffff16021790555080600160006101000a81548173ffffffffffffffffffffffffffffffffffffffff021916908373ffffffffffffffffffffffffffffffffffffffff160217905550505061015d565b600080fd5b600073ffffffffffffffffffffffffffffffffffffffff82169050919050565b60006100ea826100bf565b9050919050565b6100fa816100df565b811461010557600080fd5b50565b600081519050610117816100f1565b92915050565b60008060408385031215610134576101336100ba565b5b600061014285828601610108565b925050602061015385828601610108565b9150509250929050565b6111498061016c6000396000f3fe608060405234801561001057600080fd5b50600436106100a95760003560e01c80635f64b55b116100715780635f64b55b146101545780639c8f9f23146101725780639cd441da1461018e578063ad56238d146101aa578063b8c876b1146101c6578063dc5fa6c5146101f6576100a9565b80630fc63d10146100ae57806315770f92146100cc57806319e36f3b146100ea57806345cf2ef614610108578063507b0e6b14610138575b600080fd5b6100b6610214565b6040516100c39190610c06565b60405180910390f35b6100d4610238565b6040516100e19190610c3a565b60405180910390f35b6100f261023e565b6040516100ff9190610c3a565b60405180910390f35b610122600480360381019061011d9190610c86565b610244565b60405161012f9190610c3a565b60405180910390f35b610152600480360381019061014d9190610cd9565b610290565b005b61015c61046c565b6040516101699190610c06565b60405180910390f35b61018c60048036038101906101879190610cd9565b610492565b005b6101a860048036038101906101a39190610d06565b610744565b005b6101c460048036038101906101bf9190610cd9565b61098d565b005b6101e060048036038101906101db9190610d84565b610b69565b6040516101ed9190610c3a565b60405180910390f35b6101fe610b81565b60405161020b9190610c3a565b60405180910390f35b60008054906101000a900473ffffffffffffffffffffffffffffffffffffffff1681565b60055481565b60035481565b6000806103e5856102559190610de0565b9050806103e8856102669190610de0565b6102709190610e22565b838261027c9190610de0565b6102869190610e85565b9150509392505050565b6000811180156102a257506002548111155b6102e1576040517f08c379a00000000000000000000000000000000000000000000000000000000081526004016102d890610f13565b60405180910390fd5b60006102f282600254600354610244565b905060008054906101000a900473ffffffffffffffffffffffffffffffffffffffff1673ffffffffffffffffffffffffffffffffffffffff166323b872dd3330856040518463ffffffff1660e01b815260040161035193929190610f42565b6020604051808303816000875af1158015610370573d6000803e3d6000fd5b505050506040513d601f19601f820116820180604052508101906103949190610fb1565b50600160009054906101000a900473ffffffffffffffffffffffffffffffffffffffff1673ffffffffffffffffffffffffffffffffffffffff1663a9059cbb33836040518363ffffffff1660e01b81526004016103f2929190610fde565b6020604051808303816000875af1158015610411573d6000803e3d6000fd5b505050506040513d601f19601f820116820180604052508101906104359190610fb1565b5081600260008282546104489190610e22565b9250508190555080600360008282546104619190611007565b925050819055505050565b600160009054906101000a900473ffffffffffffffffffffffffffffffffffffffff1681565b6000811180156104e15750600460003373ffffffffffffffffffffffffffffffffffffffff1673ffffffffffffffffffffffffffffffffffffffff168152602001908152602001600020548111155b610520576040517f08c379a000000000000000000000000000000000000000000000000000000000815260040161051790611087565b60405180910390fd5b6000600554600254836105339190610de0565b61053d9190610e85565b90506000600554600354846105529190610de0565b61055c9190610e85565b905082600460003373ffffffffffffffffffffffffffffffffffffffff1673ffffffffffffffffffffffffffffffffffffffff16815260200190815260200160002060008282546105ad9190611007565b9250508190555082600560008282546105c69190611007565b9250508190555081600260008282546105df9190611007565b9250508190555080600360008282546105f89190611007565b9250508190555060008054906101000a900473ffffffffffffffffffffffffffffffffffffffff1673ffffffffffffffffffffffffffffffffffffffff1663a9059cbb33846040518363ffffffff1660e01b815260040161065a929190610fde565b6020604051808303816000875af1158015610679573d6000803e3d6000fd5b505050506040513d601f19601f8201168201806040525081019061069d9190610fb1565b50600160009054906101000a900473ffffffffffffffffffffffffffffffffffffffff1673ffffffffffffffffffffffffffffffffffffffff1663a9059cbb33836040518363ffffffff1660e01b81526004016106fb929190610fde565b6020604051808303816000875af115801561071a573d6000803e3d6000fd5b505050506040513d601f19601f8201168201806040525081019061073e9190610fb1565b50505050565b6000821180156107545750600081115b610793576040517f08c379a000000000000000000000000000000000000000000000000000000000815260040161078a906110f3565b60405180910390fd5b60008054906101000a900473ffffffffffffffffffffffffffffffffffffffff1673ffffffffffffffffffffffffffffffffffffffff166323b872dd3330856040518463ffffffff1660e01b81526004016107f093929190610f42565b6020604051808303816000875af115801561080f573d6000803e3d6000fd5b505050506040513d601f19601f820116820180604052508101906108339190610fb1565b50600160009054906101000a900473ffffffffffffffffffffffffffffffffffffffff1673ffffffffffffffffffffffffffffffffffffffff166323b872dd3330846040518463ffffffff1660e01b815260040161089393929190610f42565b6020604051808303816000875af11580156108b2573d6000803e3d6000fd5b505050506040513d601f19601f820116820180604052508101906108d69190610fb1565b50600081836108e59190610e22565b905080600460003373ffffffffffffffffffffffffffffffffffffffff1673ffffffffffffffffffffffffffffffffffffffff16815260200190815260200160002060008282546109369190610e22565b92505081905550806005600082825461094f9190610e22565b9250508190555082600260008282546109689190610e22565b9250508190555081600360008282546109819190610e22565b92505081905550505050565b60008111801561099f57506003548111155b6109de576040517f08c379a00000000000000000000000000000000000000000000000000000000081526004016109d590610f13565b60405180910390fd5b60006109ef82600354600254610244565b9050600160009054906101000a900473ffffffffffffffffffffffffffffffffffffffff1673ffffffffffffffffffffffffffffffffffffffff166323b872dd3330856040518463ffffffff1660e01b8152600401610a5093929190610f42565b6020604051808303816000875af1158015610a6f573d6000803e3d6000fd5b505050506040513d601f19601f82011682018060405250810190610a939190610fb1565b5060008054906101000a900473ffffffffffffffffffffffffffffffffffffffff1673ffffffffffffffffffffffffffffffffffffffff1663a9059cbb33836040518363ffffffff1660e01b8152600401610aef929190610fde565b6020604051808303816000875af1158015610b0e573d6000803e3d6000fd5b505050506040513d601f19601f82011682018060405250810190610b329190610fb1565b508060026000828254610b459190611007565b925050819055508160036000828254610b5e9190610e22565b925050819055505050565b60046020528060005260406000206000915090505481565b60025481565b600073ffffffffffffffffffffffffffffffffffffffff82169050919050565b6000819050919050565b6000610bcc610bc7610bc284610b87565b610ba7565b610b87565b9050919050565b6000610bde82610bb1565b9050919050565b6000610bf082610bd3565b9050919050565b610c0081610be5565b82525050565b6000602082019050610c1b6000830184610bf7565b92915050565b6000819050919050565b610c3481610c21565b82525050565b6000602082019050610c4f6000830184610c2b565b92915050565b600080fd5b610c6381610c21565b8114610c6e57600080fd5b50565b600081359050610c8081610c5a565b92915050565b600080600060608486031215610c9f57610c9e610c55565b5b6000610cad86828701610c71565b9350506020610cbe86828701610c71565b9250506040610ccf86828701610c71565b9150509250925092565b600060208284031215610cef57610cee610c55565b5b6000610cfd84828501610c71565b91505092915050565b60008060408385031215610d1d57610d1c610c55565b5b6000610d2b85828601610c71565b9250506020610d3c85828601610c71565b9150509250929050565b6000610d5182610b87565b9050919050565b610d6181610d46565b8114610d6c57600080fd5b50565b600081359050610d7e81610d58565b92915050565b600060208284031215610d9a57610d99610c55565b5b6000610da884828501610d6f565b91505092915050565b7f4e487b7100000000000000000000000000000000000000000000000000000000600052601160045260246000fd5b6000610deb82610c21565b9150610df683610c21565b9250828202610e0481610c21565b91508282048414831517610e1b57610e1a610db1565b5b5092915050565b6000610e2d82610c21565b9150610e3883610c21565b9250828201905080821115610e5057610e4f610db1565b5b92915050565b7f4e487b7100000000000000000000000000000000000000000000000000000000600052601260045260246000fd5b6000610e9082610c21565b9150610e9b83610c21565b925082610eab57610eaa610e56565b5b828204905092915050565b600082825260208201905092915050565b7f496e76616c6964207377617020616d6f756e7400000000000000000000000000600082015250565b6000610efd601383610eb6565b9150610f0882610ec7565b602082019050919050565b60006020820190508181036000830152610f2c81610ef0565b9050919050565b610f3c81610d46565b82525050565b6000606082019050610f576000830186610f33565b610f646020830185610f33565b610f716040830184610c2b565b949350505050565b60008115159050919050565b610f8e81610f79565b8114610f9957600080fd5b50565b600081519050610fab81610f85565b92915050565b600060208284031215610fc757610fc6610c55565b5b6000610fd584828501610f9c565b91505092915050565b6000604082019050610ff36000830185610f33565b6110006020830184610c2b565b9392505050565b600061101282610c21565b915061101d83610c21565b925082820390508181111561103557611034610db1565b5b92915050565b7f496e76616c6964206c697175696469747920616d6f756e740000000000000000600082015250565b6000611071601883610eb6565b915061107c8261103b565b602082019050919050565b600060208201905081810360008301526110a081611064565b9050919050565b7f496e76616c696420616d6f756e74730000000000000000000000000000000000600082015250565b60006110dd600f83610eb6565b91506110e8826110a7565b602082019050919050565b6000602082019050818103600083015261110c816110d0565b905091905056fea26469706673582212202bb1bf9235240f4e233a54af7c68bf9aa8fb6c40f1fcda62b1b5a0464a7f549764736f6c634300081c0033",
  "linkReferences": {},
  "deployedLinkReferences": {}
}